:020000041000EA
:1000000000B5324B212058609868022188439860DF
:10001000D860186158612E4B002199600221596106
:100020000121F02299502B49196001219960352056
:1000300000F044F80222904214D00621196600F024
:1000400034F8196E01211966002018661A6600F04E
:100050002CF8196E196E196E052000F02FF8012189
:100060000842F9D1002199601B49196000215960AB
:100070001A491B48016001219960EB211966A021F2
:10008000196600F012F800219960164914480160C1
:100090000121996001BC002800D000471248134993
:1000A000086003C880F30888084703B5996A0420EC
:1000B0000142FBD001200142F8D103BD02B5186610
:1000C0001866FFF7F2FF186E186E02BD00000240BE
:1000D000000000180000070000035F00212200005C
:1000E000F4000018222000A00001001008ED00E03C
:1000F00000000000000000000000000074B24E7A12
:1001000000200420F7010010C3010010C5010010F9
:10011000C1010010C1010010C1010010C101001097
:10012000C1010010C1010010C1010010C701001081
:10013000C1010010C1010010C9010010CB01001065
:10014000CD010010CD010010CD010010CD01001037
:10015000CD010010CD010010CD010010CD01001027
:10016000CD010010CD010010CD010010CD01001017
:10017000CD010010CD010010CD010010CD01001007
:10018000CD010010CD010010CD010010CD010010F7
:10019000CD010010CD010010CD010010CD010010E7
:1001A000CD010010CD010010CD010010CD010010D7
:1001B000CD010010CD010010CD010010CD010010C7
:1001C00000BE00BE00BE00BE00BE00BEEFF3058054
:1001D000103800BEF2EB887144BD001064BD001001
:1001E0003402001090A31AE700201F49086006C8D7
:1001F00081F3088810471D48006800282FD10DA4FE
:100200000ECC002902D000F012F8F9E71849194A7B
:10021000002000E001C19142FCD1174988471749ED
:1002200088471749884700BEFDE701C901C29A42C5
:10023000FBD3704764BD0010C0000020100F0020E9
:10024000B4CB00100000042000000420B4CB001048
:10025000001004200010042000000000704709482E
:1002600005F08AFB0047000008ED00E0000000D028
:10027000300F00203C270020014700109705001098
:10028000BD4600105756000006005250ABB36053F5
:1002900018B6001006005250861C030228B6001043
:1002A000060052505422A29D44B600100500525040
:1002B000DE65F468B4CB0010F8B5C04610B5064C46
:1002C0002378002B07D1054B002B02D0044800E017
:1002D00000BF0123237010BD381000200000000073
:1002E000109B0010044B10B5002B03D003490448A9
:1002F00000E000BF10BDC046000000003C10002020
:10030000109B001001207047F8B5DE4657464E4658
:100310004546E0B5844B0360844B00221A705A7046
:100320009A71DA719A70DA701A715A7100250AE0BE
:100330001300B3407D4801780B4303703520002142
:1003400003F016FC0135412D5FD86C1EE3175B0FDF
:10035000E21807261640F61AD0273F0680235B05D1
:100360009846BB613520002103F002FC43467B61C7
:100370000520002103F0FCFB7A68D20E01231A400D
:1003800053425A413F2CD9D8A40069490B599F4682
:100390001300B340654841780B434370CEE7072311
:1003A0009B1B9A401300614881780B438370C5E71B
:1003B00007239B1B9A4013005C48C1780B43C37012
:1003C000BCE707239B1B9A401300584801790B4355
:1003D0000371B3E707239B1B9A40130053484179ED
:1003E0000B434371AAE707239B1B9A4013004F4816
:1003F00081790B438371A1E707239B1B9A4013006C
:100400004A49CA791343CB7198E7474B00229A6057
:10041000464A1178C907C90F01208346D8785C463F
:10042000A0430143D97011788907C90F4900D878D2
:100430000134A0430143D97051788906C90F89005E
:10044000D8780426B0430143D9705178C906C90F42
:10045000C900D8780827B8430143D97011784807F4
:10046000C00F0001804698780E34A446A04344464D
:100470002043987050780407E40F6401A1469C78EB
:10048000A0462024A24644465546AC43A0464C46CE
:1004900045462C439C704007C00F8001E4B2A04643
:1004A0004024A14644464D46AC432043987009077A
:1004B000C90F0901D8786446A0430143D970117867
:1004C000C806C00FC00084469878B84364462043ED
:1004D00098708806C00F87009878B04338439870AA
:1004E0004806C00F9E785D46AE4330439870C909F8
:1004F0004900C0B20224A04301439970D178C94396
:1005000019709178C94359705179C943997111791A
:10051000C943D97191795971D2791A71F0BCBB462E
:10052000B246A946A046F8BD24160020D4240020D7
:10053000109B00107047704710B51C2002F0FCF9AA
:10054000002201211C2002F0CDF901211C2002F023
:10055000E3F9D024240680235B05636263611B20DA
:1005600002F0EAF9002201211B2002F0BBF98023EE
:100570001B05A36210BD10B5192002F0DDF90022A1
:100580000121192002F0AEF9D0231B06802292042B
:100590005A625A6110BD10B500F02AFB00F08CFBC6
:1005A00010BD000010B50248FFF7C5FF10BDC046E2
:1005B00068160020F8B5DE4657464E464546E0B57B
:1005C00006000D00141C807806F019F98046F078BA
:1005D00006F015F9071C707806F011F9061CA878CA
:1005E00006F00DF98346E87806F009F98246687846
:1005F00006F005F981464146584606F0A4F8211C4C
:1006000006F0C1F8414606F0A3F88046391C504672
:1006100006F099F8211C06F0B6F8391C06F098F897
:10062000051C311C484606F08EF8211C06F0ABF87C
:10063000311C06F08DF806F03BF9C4B224024046A6
:1006400006F036F9C3B21B041C43281C06F030F92F
:1006500000062043F0BCBB46B246A946A046F8BD02
:10066000F8B51D4B1B78002B1DD01C4B1A681C4B7A
:100670001A6000231B4A1370174A13700022194B8B
:100680001C78152C1ED8200006F0B9F8164906F083
:100690007AF8061C0025002D07D00134114B1C7080
:1006A000FFF780FFF8BD0122E9E7AF000F49C91944
:1006B0000B48C019321CFFF77DFF084BD85101359C
:1006C000EDB2E8E7002AEDD1084B1A68034B1A6037
:1006D000FFF768FFE6E7C0463027002068160020D5
:1006E0006C1600202C0D0020310C433D70160020AC
:1006F000014B01221A707047302700200023002B85
:1007000000D070479900024A88500133DBB2F6E707
:10071000701600208900014B585070477016002059
:1007200010B5FFF728FF10BD10B5054B1968054A35
:1007300000F00EF8002800D110BDFFF791FFFBE795
:10074000280D00200016002010B5FFF7F5FE10BDA3
:1007500010605368834205D9C31A013B8B4205D20E
:1007600000207047834204D2C31AF7E7506001208B
:10077000F7E70020F5E730B51860002A0BD15C6878
:1007800084420BD9041B013C0025002D0BD1A14252
:1007900009D9100030BD58600020FBE7844205D223
:1007A000041B0025F1E758600120F3E71000F1E792
:1007B000024B1860024B01221A707047201600206D
:1007C0003127002010B51C22014906F04DF910BD5B
:1007D00000D01210F0B5164CA544164B1B78002B18
:1007E00002D1154B9D44F0BDEFF3108772B6002483
:1007F0000094124A002101A806F030F9104B196844
:100800001C22684606F030F9802676010D4D310035
:10081000280009F03DF932006946280009F028F95E
:1008200087F3108801F012FF024B1C70D9E7C04615
:10083000FCEFFFFF3127002004100000FC0F000038
:100840002016002000D0120010B506F013FDC0B233
:1008500010BD0000072805D88000034B9C4660446B
:10086000006870470020FCE70C80054010B50400CC
:100870000520FFF7EFFF206010BD000010B5034812
:1008800005F07AF803000021002098475542000047
:1008900010B506F045FA10BD014B986A7047C04686
:1008A000004005407047000010B5002300E0013310
:1008B000032B07D81A018A1894688442F7D10124BF
:1008C0005473F4E70022002304E001209040034326
:1008D000DBB20132032A09D8100108188468002C01
:1008E000F3DB407B90400343DBB2F2E70F3B5A421D
:1008F0005341DBB2014A137010BDC0462F270020C0
:10090000002304E01A018218002151730133032BE4
:10091000F8D9024B00221A707047C0462F270020DA
:10092000014B1878C0B270472F270020004870474D
:10093000109C001070B50400FFF7F2FF02000500E4
:10094000074B08492000FFF716FF041E01D12800BD
:1009500070BD054B1868FFF7D3FF2500F7E7C046C9
:10096000F4240020307500006810002010B5034BFF
:10097000196840B2FFF798FF10BDC046681000200C
:1009800010B5024B1868FFF7BBFF10BD68100020C0
:1009900010B5FA239B0098420FD80E4B0E4A1A60EE
:1009A0000E4B01221A700E4B00221A700B4B0122C3
:1009B0001A70084B0B4A1A6010BD084B19707D382D
:1009C000FF3805F02DF8034B1860054B00221A7014
:1009D000ECE7C046300D002010270000340D002049
:1009E0002B270020C41D000010B5FA21024A8901FE
:1009F000FFF7AEFE10BDC04610160020014B187860
:100A00007047C0462A27002010B5204B18700228D6
:100A100023D00FD800282CD0012816D11C4B1D4AFA
:100A20001A601D4B1D4A1A60FA2001214001FFF790
:100A3000AFFF0FE0032808D1154B194A1A60FA20BE
:100A400001218000FFF7A4FF04E00023104A136097
:100A5000114A136008F096FB10BD0D4B104A1A6046
:100A60000D4B104A1A60FA2008214001FFF790FF51
:100A7000F0E7074B0C4A1A60074B0C4A1A60FA2041
:100A800008214001FFF784FFE4E7C0462A27002041
:100A900098180020612700109C180020452700109E
:100AA000FD200010E120001041230010252300103C
:100AB00010B5034B1B68002B00D0984710BDC046F3
:100AC0009818002010B5034B1B68002B00D09847E6
:100AD00010BDC0469C18002070B50D00124A134985
:100AE000FFF736FE00281DD170BDFF202100000455
:100AF000FFF710FEFFF7FCFD0134E4B2002CF3D148
:100B00000B4B1A5D2301EB189B68DB43DB0F9A420A
:100B1000F2D0074A1355002BE7D021000548FFF714
:100B2000F9FDE7E70024E9E708160020A0860100A8
:100B30006416002000A1A1A170B50400264B1B780B
:100B4000002B2FD1244B1A78244B1968244B2000FA
:100B5000FFF711FE002809D0224B1A78224B1B7890
:100B60009A4228D31F4A1378013313701A4B00227C
:100B70001A702000FFF7DEFE002805D0194B1A7806
:100B8000194B1B789A421AD201200021404207F0EB
:100B900081FA164D2868FFF795FF29682000FFF7B6
:100BA0009BFF70BD1148FFF7AFFB0E4B00221A7080
:100BB00001321A70C6E70D48FFF7A6FBD2E7094BD2
:100BC00000221A70044B01321A70FFF7D9FE074B4E
:100BD0001868FFF76DFFD7E733270020300D00209E
:100BE000181600202B270020340D0020681000204C
:100BF00000B583B0FFF74CFE00F064FEFFF790FDF8
:100C0000FFF7A2FD0023019301A8FFF72FFE00F0DC
:100C10005DFA00283FD0234B9B78002B1DD001AB01
:100C20001B78012B27D01F4BDB78022B2FD0032BF7
:100C300024D0012B26D01C48FFF760FDFFF758FD9C
:100C40000120FFF7E1FE002829D1FF200004FFF773
:100C500055FDFFF74DFD03B000BDFFF753FB002826
:100C600003D11248FFF74AFDFEE70E4B01229A70AE
:100C700000F008FAD3E701AB5B78D6E70C48FFF742
:100C80003DFDDBE7FF200006FFF738FDD6E709480A
:100C9000FFF734FDD2E70548FFF730FDFEE7FFF729
:100CA00001FED8E7B42000200000FFE60000FF4D61
:100CB00000F115FF00FF610010B5FFF7EDFD040026
:100CC000FFF788FD2000FFF72FFD2000FFF734FF1E
:100CD0002000FFF789FEF0E77047000010B5FFF72E
:100CE0008DFE01280AD043B2002B09D00238C0B2D1
:100CF000012801D8034810BD0348FCE70348FAE780
:100D00000148F8E7009F0010E8A40010249E00109E
:100D100010B5FFF773FE022807D0032807D001287B
:100D200001D0044810BD0448FCE70448FAE7044831
:100D3000F8E7C046A8A40010F49D0010D49E00104F
:100D4000149F00100020704770B504000D00FFF7DD
:100D500055FE002814D00238C0B2012819D82B78CB
:100D6000212B00D070BD0020FFF700FE0120FFF70F
:100D7000FDFD0220FFF7FAFD0320FFF7F7FDF1E785
:100D80002B78302B01D0212BECD12000FFF7EEFD8A
:100D9000E8E72B78002BE5D12000FFF7E7FDE1E73E
:100DA000F0B583B001900F0015001C0008AB1E8841
:100DB000FFF724FE01283ED00ED8002817D1002FBF
:100DC00015D1002D13D1217810292FD03300220006
:100DD000019801F07BF80AE00238C0B2012806D879
:100DE000002F04D1002D02D12378112B01D003B0A4
:100DF000F0BD61784B1E9941C9B20020FFF79AFB04
:100E0000A1784B1E9941C9B20120FFF793FBE1780D
:100E10004B1E9941C9B20220FFF78CFB21794B1E72
:100E20009941C9B20320FFF785FBE0E7A11C0198B7
:100E300000F0F1FDDBE7002FD9D1002DD7D12378C9
:100E4000002BD4D16378082BD1D1E378002B02D1C9
:100E50002379002B04D001210198FFF76BFBC6E733
:100E600000210198FFF766FBC1E7000010B5FFF70E
:100E7000C5FD002807D00238C0B2012801D80348B8
:100E800010BD0020FCE70248FAE7C046689E00104B
:100E9000FCA4001010B5037801330370FFF7AEFD1A
:100EA000012801D0014810BD0148FCE7409F001017
:100EB000DC9D001070B5EE2824D0002825D08000DD
:100EC0001E4BC558280008F083FDC0B21F2800D96A
:100ED0001F20002327E05A1C194CA15C0902E25C88
:100EE0000A4344001749625202330130112BF2D9F0
:100EF000154A144B13CB13C211001A680A609B8861
:100F00008B8019E000200023F0E70C4B19680222C7
:100F10000E4805F0A9FD012007E05A1CEC5C5100C9
:100F2000094BCC52D3B29842F7D801304000C023CD
:100F30009B001843044B1880034870BDF80D002037
:100F40002C9D0010541000201413002016130020B4
:100F500010B590B004000A4805F0A6FE00230093E7
:100F60003C22002101A805F079FD402269462000BD
:100F700007F0AAFF684601F08DFB10B010BDC04617
:100F8000009D0010F0B583B005001400012953D175
:100F900013785B069B0F012B45D0022B03D0002B4F
:100FA00001D0002049E06378022B24D0072B03D026
:100FB000012B19D0002040E0227963791B021343F2
:100FC000042B03D0052B08D0002036E024331C4A24
:100FD0002100280007F082F92FE08D33194A210003
:100FE000280007F07BF928E01F23174A210028007A
:100FF00007F074F921E0227963791B021343072B70
:1010000001D0002019E06B469F1D104E02223100D6
:10101000380005F029FD3B883200083A21002800FD
:1010200007F05CF909E05178094805F06DFE2100F0
:10103000280007F037F900E0012003B0F0BDC046FA
:10104000CC0D0020380D0020409D0010549C001055
:10105000189D001070B500250FE0FFF7F5FB084C58
:1010600064192071FFF7F0FBA072FFF7EDFB20740D
:10107000FFF7EAFBA0750135EDB2052DEDD970BD86
:10108000B420002010B50248FFF792FB10BDC04607
:10109000B420002030B589B001AC1C220021200012
:1010A00005F0DCFC03232380074D2B0007CC07C38E
:1010B00007CC07C322681A60FFF7CCFFFFF722F9BD
:1010C000A87009B030BDC046B420002010B5084C4F
:1010D0002000FFF777FB2388032B01D1012010BDEF
:1010E000044805F0E1FDFFF7D5FFFFF7CBFFF5E77B
:1010F000B4200020AC9D00100120704710B5842260
:1011000092000021014805F0A9FC10BDB41C00208C
:1011100010B50020FFF7F2FF10BD0000F0B583B05E
:1011200005000E001700FFF769FC012838D132795D
:10113000D400A41AA4B21934A4B2BC4234D80023F7
:10114000032B10D85801C01880001A4F3818407867
:10115000002802D00133DBB2F2E75F01FF18BF00C5
:1011600014497F1800E00027002F1FD03378F118B2
:10117000F35CC9187B1C0193BB1C0093032328005C
:1011800006F0D0FC002813D0B3783B70B978002962
:1011900007D03A0044324023280006F01DFD00E04D
:1011A0000024200003B0F0BD0024FAE70024F8E793
:1011B0000024F6E7B41C0020F0B5C64600B582B0A6
:1011C00004000020032811D8420112189200284D73
:1011D000AA1892788A4209D0420112189200AA18DD
:1011E00052788A4202D00130C0B2EBE703283BD8E4
:1011F00005004201121892001D4EB21852788A4220
:101200000CD0420112189200194EB21892788A42FC
:1012100011D0012002B080BCB846F0BD154A002AAA
:1012200024D0410109188900891904319AB2FFF7C5
:101230008BFD0120EEE747013E18B60040360C4A10
:101240009046464404369BB20093330000220021AE
:10125000FFF7A6FD7F19BF004744B978402332004D
:10126000200006F0B9FCD5E70020D3E70120D1E744
:10127000B41C0020490D0010F8B5040006F09CFBDA
:10128000002803D10023002B08D1F8BD06F09CFBF9
:10129000002801D10123F6E70023F4E763011B19BD
:1012A0009B000F4AD3189978002006F0D1FC002843
:1012B000EBD10B4F65012E19B600BE19B17806F0BF
:1012C00063FC2A1992004032D2190432B1784023CB
:1012D000002006F081FCB178002006F069FCD4E71C
:1012E000B41C0020F0B583B007000191150006F092
:1012F0006BFB00280ED17B01DB199B00164AD3182B
:101300005E783100002006F03FFC041E05D120006D
:1013100003B0F0BD06F060FBEDE72B1C402D00D9BB
:1013200040239DB27C01E419A4000B4BE418043463
:101330002A000199200005F097FB2B0022003100C4
:10134000002006F049FC04003100002006F030FCCB
:101350003800FFF791FFDAE7B41C002010B5030056
:101360004001C0188000114B1818447806F024FB87
:10137000002806D10023002B13D0002C09D1002017
:1013800010E006F021FB002801D10123F3E7002340
:10139000F1E72100002006F05BFC002803D10130BA
:1013A00000E0002010BD0020FCE7C046B41C002077
:1013B00010B53C220021024805F050FB10BDC0468C
:1013C0009413002010B50020FFF7F2FF10BD0000BD
:1013D000F0B583B005000E001700FFF70FFB0328E0
:1013E00016D13379DC00E41AA4B21234A4B2BC42A0
:1013F0004CD80023002B11D00027002F48D0317883
:1014000071184B78212B19D00024200003B0F0BDB7
:10141000FFF7F4FA0228E4D00024F6E71A01D21A02
:1014200092001D4882185278002A02D00133DBB2A4
:10143000E0E71A01D11A89004718DEE7B9630B7893
:10144000C91832797B1C0193BB1C0093032328002D
:1014500006F068FB00281DD0B379012B13D00123BF
:101460003B71B3783B70BA6BD179137A1B020B4393
:10147000FB80B9780029C8D03A0030320623280012
:1014800006F0AAFBC1E7F379FB70E8E70024BCE7AC
:101490000024BAE70024B8E79413002070B582B0A6
:1014A00005001D4C002000280AD0002830D16278A9
:1014B0008A4213D0A2788A421AD0012002B070BDAD
:1014C0000401241AA400144A1419A2788A42ECD008
:1014D00062788A42E9D00130C0B2E4E70F4A002ABC
:1014E00018D0210008319AB2FFF72EFC0120E5E761
:1014F000260030369BB20093330000220021FFF714
:101500004FFCA17806233200280006F065FBD5E7E2
:101510000020D3E70120D1E794130020490D0010EB
:10152000F0B5C64600B582B00600150012781F233C
:101530001340012B00D01FE128790024002C0DD08E
:10154000FF24002C00D01CE127006023180010406D
:10155000134239D101290BD001200EE123011B1BBD
:101560009B008E4FDB5D9842EBD00134E4B2E5E79F
:10157000EA786B78062B06D0062B00D005E1222AEC
:1015800012D00020F9E0212AF6D123011F1BBF0051
:10159000824BDF19BA6B002A00D1F4E013782900DE
:1015A000300006F09BFEE8E02000FFF75FFC020041
:1015B0003B01DF1BBF00794BDF19FB88290030009E
:1015C00006F08CFE0120D8E0202800D0DFE06B7808
:1015D0000B2B00D9DDE09B00714AD3589F460129AF
:1015E00001D00120C9E0EA78A97823011B1B9B00E8
:1015F00008336A4FFF18A879EB791B020343181CC4
:10160000252B00D9252080B2002909D0012B16D91D
:101610007B1C9C463970013880B20123984602E059
:10162000BC4600239846009063462000FFF78AFBE3
:10163000030043449BB2002B05D100209DE0BC4633
:1016400000239846EFE73A002900300006F046FEF6
:10165000012092E0012903D0032915D001208CE05C
:10166000AA79EB791B021343062B01D9002084E0F1
:101670002201121B9200303248498A18290030009A
:1016800006F02CFE012078E0EA78A97823011B1BE4
:101690009B0030334148C318AE79E87900023043EB
:1016A000051C062800D90625ADB2002904D0012862
:1016B00002D91878884205D000952000FFF770FB0A
:1016C00001205AE00133013DADB2F5E7012901D017
:1016D000012052E0E97823011F1BBF002F4BDF19C7
:1016E0007971304B002B04D0200000E000BF0028AF
:1016F00043D02900300006F0D5FD01203DE001294E
:1017000001D0012039E02201171BBF00234AD21962
:10171000053201232900300006F0E0FD01202CE015
:10172000012901D0012028E02201171BBF001B4A1C
:10173000D219043201232900300006F0CFFD012028
:101740001BE0012903D0032907D0012015E029005F
:10175000300006F0A7FD01200FE0A97823011F1B30
:10176000BF000E4BDF1939710F4B002B13D0200037
:1017700000E000BF012000E0002002B080BCB846BD
:10178000F0BD0020F9E70020F7E70020F5E7002092
:10179000F3E70020F1E70120EFE7C04694130020B3
:1017A000389E0010000000000000000010B503018A
:1017B000181A8000104B1818447806F0FDF800281D
:1017C00006D10023002B13D0002C09D1002010E0FB
:1017D00006F0FAF8002801D10123F3E70023F1E72E
:1017E0002100002006F034FA002803D1013000E087
:1017F000002010BD0020FCE79413002010B500204D
:10180000FFF7D4FF10BD0000F8B504000F0016006C
:101810001D0003011B1A9B001F4AD3185978002092
:1018200006F0B2F9002825D0002F24D02B1C242D3F
:1018300000D924239DB2184A2301191B890051188D
:101840000F721B1B9B000833D01801302A00310097
:1018500005F00AF90135ADB20F4B2001021B9200D1
:1018600008329A18001B8000181841782B000020BD
:1018700006F0B2F9F8BD2B1C252D00D925239DB209
:101880002001001B80000830034B18182A0031008B
:1018900005F0EAF8E0E7C0469413002010B5130005
:1018A0000A0001000020FFF7AFFF10BD1070031207
:1018B0000F20184050700B0118435070091191709F
:1018C0007047000070B5124D802424012A002100C9
:1018D0002000FFF7EBFFEA1C21002000FFF7E6FFE6
:1018E000AA1D21002000FFF7E1FF2A000932210094
:1018F0002000FFF7DBFF2A000C3221002000FFF759
:10190000D5FF2A000F3221002000FFF7CFFF70BD66
:101910000427002010B58001034BC018402200218D
:1019200005F09CF810BDC04674160020014B1954F8
:101930007047C0467417002083010248C018017325
:101940007047C0467416002083010248C0184173D6
:101950007047C0467416002010B5084A0021535E37
:101960001478800106494454033399B21BB21380A2
:10197000FF2B01DDFF39118010BDC0462827002054
:101980007416002083010248C01801234370704779
:101990007416002083010648C0180323837348226D
:1019A000C2730374013B4374473A0276437670472F
:1019B0007416002070B5CEB20D0A00230AE01C0098
:1019C0000E348101054A5218165519000F3155542D
:1019D0000233DBB20D2BF2D970BDC0467416002065
:1019E00030B5C478032545574378082119400122B2
:1019F00093437E322240012B01D9002907D0402A8F
:101A000007D9002D01DB012004E0002002E00120C5
:101A100000E0002030BD10B504000800FFF7E0FF33
:101A200001002000FEF786FD10BD000030B50D4B13
:101A300082010121D1549B1800225A7003329A70FE
:101A400000210CE0CC1C43001B185A00064B9B18CD
:101A50005B181D798201034B9B181D550131052927
:101A6000F0D930BD74160020B420002070B50400F9
:101A70000D00FFF74FFF81212000FFF757FF012DD9
:101A800010D029000B4805F03FF9A3010A4A9D54E4
:101A9000A201094BD218094B195D4023200006F022
:101AA000ADFF70BD064805F02FF92000FFF7BEFF1F
:101AB000EEE7C046709F00107416002074170020D7
:101AC000589F001070B586B004006846204B020095
:101AD00061CB61C261CB61C202291FD003292DD025
:101AE00081212000FFF728FF1A4EA501731901225A
:101AF0009A7328000F308019610009194900164CAB
:101B000009190431053204F0AFFF2800153080199F
:101B10001822694604F0A8FF06B070BD812120009C
:101B2000FFF70AFF0B48A401031902229A730F342E
:101B300020180E32094904F097FFEDE781212000BB
:101B4000FFF7FAFEA401034804190323A373E3E794
:101B5000E8A1001074160020B42000208018002096
:101B6000F8B505000C0016001F00FFF7D3FE212179
:101B70002800FFF7DBFE2800FFF7EEFE2800FFF746
:101B800001FF21002800FFF7DFFE6D4805F0BCF8DB
:101B9000482C00D9A8E0A1006A4B5B589F466A48D0
:101BA00005F082F880212800FFF7C6FE674805F09F
:101BB000ABF80024B6E0F17A654805F0A5F880217D
:101BC0002800FFF7B9FEF1E7624805F06DF8F17AF9
:101BD0002800FFF777FFE9E7F17A5F4805F094F80E
:101BE00080212800FFF7A8FEF27A5C4B5A55DDE70A
:101BF0005B4805F059F882212800FFF79DFE280078
:101C0000FFF7C8FED2E7F17A564805F07DF880214B
:101C10002800FFF791FEC9E7317BF27AF37B524847
:101C200005F072F890212800FFF786FEF37BF27A28
:101C3000317B280000F026FAB8E7317BF27AF37B9B
:101C40004A4805F061F880212800FFF775FE337BD4
:101C5000802BABD1F37A262BA8D10024192C0BD8DA
:101C600023001033F15C424805F04EF80A2004F0DE
:101C7000FDFF0134A4B2F1E70020FFF703FA95E776
:101C80003C4805F011F883212800FFF755FE642138
:101C90002800FFF78FFE89E7374805F005F8802117
:101CA0002800FFF749FE81E7344805F02DF8802130
:101CB0002800FFF741FEF27A0F231340072B0BD0C9
:101CC0000F2B0DD0032B03D02D4804F0EDFF6DE753
:101CD0002C4804F0E9FF69E72B4804F0E5FF65E7CD
:101CE0002A4804F0E1FF61E72100294805F00CF8DB
:101CF000002405E0315D274805F006F80134A4B260
:101D0000BC42F7D30A2004F0B1FF80212800FFF77E
:101D100013FE4BE7A101204BC9181E4804F0F4FF45
:101D20000134E4B21F2CF5D90A2004F09FFFAA0168
:101D3000194BD21840232121280006F05FFEF8BD80
:101D40008C9F0010B0A00010949F0010A8A000105D
:101D5000A49F0010B49F0010C49F0010240E002008
:101D6000DC9F0010F09F001004A000102CA00010B9
:101D700054A000105CA000106CA0001080A0001007
:101D80007C9D0010889D0010949D0010A09D001067
:101D900090A00010A0A000107416002070B50500DF
:101DA00014001E00102911D0802913D0012903D05E
:101DB0000A4804F0A9FF08E0911CFFF72CFEA17A65
:101DC000330022002800FFF7CBFE70BD911CFFF707
:101DD00022FEFAE75178FFF749FEF6E7D4A100109A
:101DE000094B1B780A2B07D00B2B09D0064B0A2274
:101DF0001A70054B18787047034B0B221A70F8E7DE
:101E0000014B0C221A70F4E7280E002070B5040074
:101E10000D00274B1B5C002B04D1264B1B5C302B89
:101E20000ED070BD8201244BD2184100234BCB5AF7
:101E30002349095CFFF7B2FF1D4B00221A55F0E75A
:101E4000FFF768FD30212000FFF770FD2000FFF74D
:101E500083FD2000FFF796FD2B78A201194EB618DE
:101E6000B3706B78F370AB783371EB7873712B7957
:101E70000F210B40B3716879AB791B0203431B112F
:101E8000F371EB7933722B7A19407172697AAB7AFC
:101E90001B020B431B11B372FFF7A2FFF0720A4B38
:101EA000195D40233200200006F0A8FDB9E7C046C6
:101EB00078180020240E0020781700201C0E002027
:101EC0007C180020741600207417002070B50C00D8
:101ED00011001A00064B01251D54064B1C544400EA
:101EE000054BE2528001054BC01804F0BDFD70BDEA
:101EF000781800207C1800201C0E00207817002085
:101F000010B514001A008001401803494018210040
:101F100004F0AAFD10BDC04674160020502800D160
:101F20009FE003D960281ED0FF2013E0402800D98D
:101F300099E0202808D3242900D198E00BD8012962
:101F400000D096E0222005E0002803D0102800D021
:101F50008BE0002070472639C9B2252901D8FF201F
:101F6000F8E70020F6E7A92979D88B00434AD3582F
:101F70009F46FF20EEE70220ECE70120EAE723205E
:101F8000E8E70020E6E7B920E4E71A20E2E70120CD
:101F9000E0E70020DEE74020DCE70020DAE7402031
:101FA000D8E70020D6E74020D4E70120D2E7002080
:101FB000D0E70120CEE70020CCE70120CAE70020CF
:101FC000C8E73B20C6E73420C4E73B20C2E7342003
:101FD000C0E73B20BEE73420BCE73D39284B585CC6
:101FE000B8E73D39264B585CB4E71A20B2E71A200F
:101FF000B0E71A20AEE75E20ACE70120AAE7502048
:10200000A8E7FD20A6E70020A4E70020A2E7C6205D
:10201000A0E70F209EE70F209CE730209AE7612081
:1020200098E7AE2096E7902094E7D92092E7D42055
:1020300090E714208EE754208CE741208AE7152092
:1020400088E7542086E7C72084E7792082E79C2030
:1020500080E733207EE736207CE763207AE70020A4
:1020600078E7002076E7FF2074E7FF2072E768201A
:1020700070E700206EE703206CE7C04600A2001066
:1020800004270020F0B5C64600B58AB080460E0091
:1020900017001D0008AA1770517000249470D470A6
:1020A000137105230E21FFF72BFF00941A22002144
:1020B00001A804F0D3FC07E03919C9B23000FFF7DA
:1020C0002DFF6B4618550134A542F5DC2B006A46FE
:1020D00013214046FFF714FF0AB080BCB846F0BD9C
:1020E00010B5054B1B78002B00D010BDFFF786FB09
:1020F000014B1870F9E7C0462E270020F0B5DE46E8
:1021000057464E464546E0B583B00190824B2122AA
:102110001A700023009311E0FF24E9007F4A52184F
:1021200094719A78920601D41A7900E0FF22ED00AA
:102130007A4B5D19EA71009B01330093009B032BDE
:1021400000D9A6E0009B1B01019A944663449D6858
:10215000002DF0DBEA00511901316F4E745C142040
:1021600004437454DC78E407E40F6C490126505CA6
:10217000B04304435454DC78A407E40F6400505C7B
:10218000804602208446474687433C435454DC78CB
:102190006407E40FA400575CB9460427B8464F46CD
:1021A000404687433C435454DC782407E40FE40062
:1021B000505C824608208146574687433C4354542E
:1021C000DC78E406E00F82468C1860780700B7439D
:1021D0003E005046064366709E787606F60FF6007F
:1021E00060780700484687433E4366709E78B6068F
:1021F000F60FB60060780700404687433E4366709E
:102200009E78F606F60F76006078070060468743F2
:102210003E4366709E787607F60FB601505C8446A2
:102220004020804660464746B843064356549E7851
:10223000F607F00E8446565C10208643604606433F
:1022400056549E78B607F60F7601505C84462020DF
:10225000804660464746B843064356549E78360744
:10226000F60FF601505C80467F2084464046674664
:102270003840064356545A78A2701A78E270DA79D8
:1022800022719A7962719A78520600D544E75C7996
:1022900043E7234B1B78002B1BD11F4B042259789B
:1022A00011435970997A11439972D97C1143D974A9
:1022B000197F0A431A771A4B01221A70FFF79EFA08
:1022C000002822D103B0F0BCBB46B246A946A046C6
:1022D000F0BD114C114DA01C0822290004F0C4FBD4
:1022E00020000B3029000831082204F0BDFB230038
:1022F00014332A00103203CA03C320001D30290002
:102300001831082204F0B0FBD8E72522024900204A
:10231000FFF7C4FAD6E7C046D41F002028200020CB
:102320002D27002010B50400037B002B02D180680C
:10233000002800DA10BDC0B206F038FB2073F9E7C0
:10234000F0B5DE4657464E464546E0B583B00190AF
:1023500000230093009B002B06D003B0F0BCBB46CB
:10236000B246A946A046F0BD009B1C01019B9C46BD
:102370006444A568002D00DA51E1A0784007C00F41
:10238000AC4AAB005B195B005B19D1180126B14662
:102390008E784F46BE4330438870A0788007C00FC8
:1023A00080008E780337BC46BE4330438870A078E7
:1023B000C007060F88780437B846B84330438870A2
:1023C000A0780007C00F40008E78B2460226B346C0
:1023D0005746B74338438870E0780007C00F9F5CCA
:1023E0004E46B74338439854E0784007C00F40004A
:1023F0009E5C37005E46B74338439854E078C00788
:10240000000F8146985C4646B0434E463043985490
:10241000E0788007C00F80009E5C37006646B743B7
:1024200038439854E078C006C00F40004E7837001B
:102430005E46B74338434870A178C906C90F890181
:10244000985C4026B0430143995463793C2B75D87E
:10245000A2785206D20FAB005B195B005B1975497D
:10246000CB18D10198787F2202400A439A702379D1
:102470003C2B65D8A2789206D10F6E48AB005B1951
:102480005B005B19C9011E5C7F2232400A431A546B
:1024900063781B2B56D9181CE42B01D9E423181C94
:1024A000C0B21C3804F0B0F9061C23781B2B4BD9A2
:1024B000181CE42B01D9E423181CC0B21C3804F00A
:1024C000A3F98246E3791B2B41D9181CE42B01D9CF
:1024D000E423181CC0B21C3804F096F98146A37995
:1024E0001B2B37D9181CE42B01D9E423181CC0B2CC
:1024F0001C3804F089F980464F49301C04F043F938
:10250000061C4D49504604F03EF982464A49484669
:1025100004F039F981464849404604F034F98046D0
:102520000021301C04F060F9002816D14349301C0A
:1025300004F060F9002811D0404E0FE001228AE734
:1025400001219AE70026B0E700239A46BAE7002364
:102550009946C4E700239846CEE70026002150465E
:1025600004F042F9002808D13449504604F042F9F9
:10257000002804D0314B9A4601E000239A460021FE
:10258000484604F031F9002808D12C49484604F0A7
:1025900031F9002804D0294B994601E000239946DF
:1025A0000021404604F020F9002808D12349404684
:1025B00004F020F9002804D0204B984601E00023C5
:1025C0009846301C04F074F983B2AE007619760098
:1025D0007619184A9619FF2293461040F0701B0A8C
:1025E0003371504604F064F983B25A46104070715A
:1025F0001B0AB371484604F05BF983B25A46104097
:10260000F0711B0A3372404604F052F983B25A4605
:10261000104070721B0AB372237B002B03D1009B06
:102620000133009396E63100E8B2FFF7EFFB002399
:102630002373F4E7482000200AD7A34100F07F4528
:10264000014B01221A7070473427002010B50E4B41
:102650001B78002B00D110BD0C4804F025FB0C4C5E
:1026600040220021200004F0F9F9F12323704022D8
:102670002100002006F03EFC002006F059FC024B31
:1026800000221A70E7E7C04634270020C8A50010D2
:10269000741C002010B50378AF2B07D0F12B14D099
:1026A0000F2B00D010BDFEF7E9F8FBE70B49AF2375
:1026B0000B7000234B7001338B704022002006F01A
:1026C00019FC002006F034FCECE7054804F0ECFAB5
:1026D000FFF7B6FFFEF7D6FCE4E7C046741C002007
:1026E000E0A5001010B504F08AF8114904F02BF8A9
:1026F00004F0E6F80F4A104B03F0FDFB03F0B4FCC6
:102700008721C90504F03FF8041C0C4904F072F855
:10271000002807D10A49201C04F066F8002802D0DE
:10272000074C00E0054C201C04F090F800B210BDEE
:102730000000FE427B14AE47E17AF43F00FAFF4608
:1027400000FAFFC610B50400037B002B02D180689D
:10275000002800DA10BDC0B2FEF700FE2073F9E7D2
:10276000F8B5CE46474680B580460027002F03D0F7
:10277000C0BCB946B046F8BD3D014544A968002932
:1027800000DA84E0CBB29946FF260E406878FFF766
:10279000A9FFB400A419A300454CE418E0802878F0
:1027A000FFF7A0FF2081E879FFF79CFF6081A879FF
:1027B000FFF798FFA081AB781B07DB0FA278012100
:1027C0008A431343A370AB785B07DB0F5B00A178F0
:1027D000022291430B43A370AB78DB07590FA37818
:1027E000042083430B43A370AB789B07DB0FDB0014
:1027F000A178043081430B43A370EB78DB06DB0F39
:102800001B01A078102188430343A370AB78DB063B
:10281000DB0F5B00E07890430343E370EB78DB076A
:10282000DA0EE3788B431343E370EB789B07DB0FFF
:102830005B01E27810318A431343E370EB785B0766
:10284000DB0F9B01E27820318A431343E370EB787E
:102850001B07DB0FDB01E1787F220A401343E370A3
:10286000AB785B0615D46979B3009B199B00104ABD
:10287000D3181971AB789B060DD42979B3009B1935
:102880009B000B4AD31859712B7B002B05D10137C4
:102890006CE70021E8E70021F0E7B1008919890021
:1028A000511814224846FEF71DFD00232B73EEE756
:1028B0005420002010B58300084A944663441C68E5
:1028C00040226240C02414408022520113431C6005
:1028D000C000034B9C466044416010BD04C00140F1
:1028E0000040014080000B4B9C46604400290DD005
:1028F0000823002A0CD004221343026853400C2200
:102900001340802252011043036070470023F0E718
:102910000022F1E704C001408000064B9C46604461
:102920000901036859403023194080235B01184393
:102930000160704704C0014010B501238340D022DC
:102940001206936293610521FFF7B4FF10BD0000EA
:10295000034B1B6802201840431E9841C0B27047C9
:1029600000C00640EFF3108072B6034B1B68002BCB
:10297000FBD0BFF35F8F70472C0100D0BFF35F8F98
:10298000024B00221A6080F3108870472C0100D09F
:10299000F8B506000C001500FFF7E4FFE308F71890
:1029A000F15C07222240012393400B4205D1DBB2A8
:1029B0000B433B70FFF7E2FFF8BD2100280001F058
:1029C0001BFFF0B583B00600019114001F00FFF754
:1029D000C9FF00E00134BC420CD8E308F518F35CF1
:1029E0000721214001228A401A42F3D1D2B21A4370
:1029F0002A7001E001246442FFF7C0FF002C02DBD3
:102A0000200003B0F0BD019B002BF9D0089801F025
:102A1000F3FE0000002307E0054A9A189200BFF376
:102A20005F8F0021116001331F2BF5D97047C0461D
:102A300040000034054A1078431CDBB21370172B9A
:102A400002D9130010221A707047C046290E0020C8
:102A500000B583B00100044B00931F2318220348E4
:102A6000FFF7AFFF03B000BDFCA50010FC1F002066
:102A7000074B9B68103080001950BFF35F8FBFF386
:102A80005F8F044B0021196082F310887047C046A5
:102A900000ED00E0240100D010B5091A081F0A4B10
:102AA0009C466144094A914208D8C30706D44010A5
:102AB0004005400D064B184380B210BD054B064A39
:102AC000A321064801F0FEFDFC070000FE0F0000F8
:102AD00000E0FFFF18A6001088A8001048A600100C
:102AE00010B5091A04394C08090B08D14905490DDC
:102AF000064A11430180064B2343438010BD054B1A
:102B0000054AAB21054801F0DDFDC04600F0FFFF9E
:102B100000F8FFFFA4A600105CA8001048A6001053
:102B200001238340034A10681840431E9841C0B2F5
:102B30007047C04600E100E0002904D0034B186054
:102B4000034B18607047034B1860FBE780E200E01E
:102B500000E100E080E100E010B5012383401800AF
:102B6000FFF7EAFF10BD0000024B9B6810308000A9
:102B7000C058704700ED00E070B504000D00EFF3A1
:102B8000108672B60C4B1B68002BFBD0BFF35F8F17
:102B90002000FFF7E9FF094B984201D0A84205D178
:102BA000320029002000FFF763FF70BD044B054A87
:102BB0008621054801F086FD240100D0CD010010DA
:102BC000B4A60010BCA8001048A60010F0B5DE4660
:102BD00057464E464546E0B589B0814601911500FD
:102BE000EFF3108A72B6744B1B68002BFBD0BFF357
:102BF0005F8F724B0027DF57002F40DB7C00E4190A
:102C0000A4006F4824180622A2566C4B1A706D4B14
:102C10009A684B4610339B00D35898461E001B1AE7
:102C20002F2B38D9684B98452FD105AE674B338091
:102C30007B009B46D8198000614B98464044023087
:102C40006349FFF729FF7080624BB380FF23B371A4
:102C5000F571019B07935F44BF0047440ECE0EC73A
:102C600001231C43A046524641464846FFF700FF59
:102C700009B0F0BCBB46B246A946A046F0BD564BD3
:102C8000564AD721564801F01DFD564B534ADE21C6
:102C9000534801F017FDC04340440C2102F0C0FE30
:102CA000002912D101239E43B34633000026DA796E
:102CB000AA4211D90621595600290CDB4A005218A4
:102CC00092001E003E4B9B18F1E7474B434AEA2116
:102CD000434801F0F7FC1E00002E3AD005AB434AF2
:102CE0001A80813A5A800623F3560293002B17DA92
:102CF0003F4805AB9B469880029A9A71DD71019A14
:102D00000792301D2100FFF7C7FEB080B7717B002E
:102D1000DB199B002A4FFF185B4607CB07C7A2E7CA
:102D20007800C0198000264BC0180430321DB388CB
:102D3000D90A1C2907D15B055915023149005118E0
:102D4000FFF7AAFED5E72B4B2B4AB121244801F00F
:102D5000B9FC05AE1D4B33807B000293D81980006F
:102D6000174A9046020042440392901C1849FFF70C
:102D700093FE7080039A101D5946FFF78DFEB080B8
:102D80001E4B5A464146521A524153431B0DB371D2
:102D9000F571019A0792029B9C466744BF00474425
:102DA0000ECE0EC7114B5A461380813B5380012330
:102DB0001C43A04657E7C046240100D03927002015
:102DC0002C0E002000ED00E0CD01001000A1FFFF5F
:102DD0005C0E002001BDFFFFECA60010A4A80010AF
:102DE00048A6001014A700103CA7001001480000DE
:102DF00001BD0000B0A7001094A80010AAAA00000E
:102E0000F0B5CE46474680B583B006000D00EFF31F
:102E1000108872B6564B1B68002BFBD0BFF35F8F38
:102E2000544B9A6834001034A300D758524B9F4239
:102E300007D0AF4200D198E00197504BFB1A2F2BDF
:102E400009D9424639003000FFF712FE03B0C0BC7A
:102E5000B946B046F0BD3000FFF762FE8146002162
:102E60003000FFF779FEBFF35F8FEFF30581002994
:102E700001D08C4211D10123019C9C430022A36804
:102E8000AB4212D00622A256002A0DDB53009B183B
:102E90009B002200394CE418F1E73621384B394ABF
:102EA000FF31394801F00EFC2200AB4256D1062515
:102EB0006557002D38DB6B005B199A002F4B9B1870
:102EC0009A68A260DA79E27106229A56A2719B7919
:102ED0005BB2002B0FDA2D48A0806B005B199B00C2
:102EE000264AD3182A4A117899711570494630003C
:102EF000FFF732FEA5E7201D6B005B199B001F4A00
:102F00009B181A1D9B88D90A1C2907D15B055B15E4
:102F1000023359005118FFF7BFFDDDE71D4B1E4A74
:102F2000B121194801F0CEFB002912D1002A0ED0A0
:102F3000FF239371194B9380154A1378A371184B93
:102F40000E49641A644163431B0D1370CEE70A4FA8
:102F5000F2E7201D1349FFF7C3FDC7E76A21124BB3
:102F6000084AFF31084801F0ADFB034F69E7C0464E
:102F7000240100D000ED00E0CD0100102C0E002057
:102F8000C8A7001074A8001048A6001001BD0000DA
:102F900039270020B0A7001094A8001001BDFFFF42
:102FA000AAAA0000660E0020FCA7001070B501213F
:102FB00001432E4BCB1A2F2B28D8EFF30583002B80
:102FC0002BD0EFF3108C72B6294A1268002AFBD07E
:102FD000BFF35F8F274A0400244D641B64416243A2
:102FE000120D54B2244A92689B00D2588A421BD0D8
:102FF0000022032A32D853009B189B001B49CB1890
:103000009B795BB2A3421FD00132F2E7C7211B4B71
:103010001B4A49001B4801F055FB92211A4B184AE4
:10302000FF31184801F04EFB134A92681749D150FE
:10303000174B1A7882711C70BFF35F8F0C4B002204
:103040001A608CF3108870BD0D0053009918890028
:103050006918FF268E710F4A8A80E9E7D1210E4B4D
:10306000074A4900074801F02DFBC0462C0E0020FE
:10307000240100D0AAAA000000ED00E004A800107E
:1030800040A8001048A600102CA80010CD01001088
:103090003927002001BDFFFF38A800100022044B93
:1030A00002E0044902C30132072AFAD97047C04638
:1030B00000E400E080808080024B9C4661448900EF
:1030C000016070474000003410B50400FFF7B2FC07
:1030D00001002000FFF7F0FFFF232371BFF35F8F94
:1030E00010BD10B50400FFF7A5FC01002000FFF79C
:1030F000E3FFFF23237100236371BFF35F8F10BDD4
:10310000034B9C46614489000160BFF35F8F7047A9
:103110004000003410B504000120FFF799FC0100C5
:103120002000FFF7EDFF10BD70B505000C00080092
:1031300000F0D0FE0949200000F010FEFFF77AFCF5
:10314000074B9C466044800068602C75D0231B06AA
:103150001B786B75A400034BE55070BD6D340010F7
:1031600040000034DC2400200A4B1A68EFF3108181
:1031700072B61368002BFCD0BFF35F8F054B1B6842
:10318000BFF35F8F00221A6081F3108840BF0020D8
:10319000002170470027002010B5002922D00368C5
:1031A0001B7B99421ED8174B9C46614409018368DA
:1031B0009C4661440C684968002A19D003681B7B4F
:1031C0009A4215D883680F488446624412019A18BF
:1031D00010685368020001208B4201D80ED00020F5
:1031E000C0B210BD084B094A3C21094801F06AFAF7
:1031F000054B064A3C21064801F064FAA242EFD88A
:10320000EDE7C046FFFFFF0FA4AA001024AD001099
:1032100050AA001010B500291ED0037B99421BD87C
:103220004B005B18033B0468A4466344002919D093
:10323000002A1DD0914221D0002A25D0047BA24231
:1032400022D804685000801803382018817019783B
:1032500000291FD11A7010BD104B114A6821114866
:1032600001F030FA104B114A6F310E4801F02AFA82
:103270000F4B0E4A70210B4801F024FA0D4B0B4AFC
:103280007121084801F01EFA044B054A68210548DF
:1032900001F018FA41701A70DDE7C046C8AA0010A4
:1032A00090AD0010E4AA00104CAB00106CAD001003
:1032B00058AB001064AB001070B506000D00140090
:1032C000002914D0002A14D0806873689847002819
:1032D00006D0220029003000FFF79CFF280007E0FD
:1032E0002A0021003000FFF795FF200000E01000C9
:1032F00070BD0800FCE70000F0B583B00500009247
:1033000001930AAB1C780BAB1F78002C26D0036806
:103310005A7B944207D10123002B19D1002C3BD1B9
:10332000200003B0F0BD002C0CD01A7B944209D8C9
:103330001A6863001B19033BD3189B78002BEBD052
:103340000123E9E73E4B3F4A68213F4801F0BAF9C3
:103350003E4B3F4A67213F4801F0B4F903689C7B2C
:10336000002CDBD012D01A7B94420FD862001219C5
:10337000033A19688C46624451789973002900D148
:10338000D9730023937053701370C7E72C4B2D4AE9
:1033900068212D4801F096F9002C3AD02B681B7B50
:1033A0009C4236D82C4BE3181B01AA689446634410
:1033B000009A1A60019A5A60089A9A60099ADA602B
:1033C0002E68002C2BD030D0337B9C422DD863004C
:1033D0001B19033B32689446634400229A705A706A
:1033E0001A70717B22003000FFF766FF7073844211
:1033F00000D095E7287D009A019B00F0F7FC061E9F
:1034000001D0002F17D00C9B002B00D188E71E7035
:1034100086E7124B124A3C210E4801F053F9114B3A
:10342000114AA521084801F04DF9054B054A6821CC
:10343000054801F047F92868210000F00FFFE2E796
:10344000C8AA001090AD0010E4AA00107CAB0010D8
:103450009CAD001050AA0010FFFFFF0FA4AA00109F
:1034600024AD00104CAA001080AD0010F0B5DE466F
:1034700057464E464546E0B58BB009900023089369
:103480008200B54BD658370052E0B44BB44A3F21C6
:10349000B44801F017F9B44BB44A3C21B44801F0E8
:1034A00011F9002901D1002869D10021404600F01E
:1034B000CBFEA04219D12A686B6806920793AB68CD
:1034C0009846EB689A464346002B14D0002C18D03F
:1034D0003B681B7B9C4214D8631EFA68D35C08933C
:1034E0001B0218433861002015E0A24BA24A8E212E
:1034F0009F4801F0E7F8A14B9F4A92219C4801F0B8
:10350000E1F8994B9E4A4121994801F0DBF80023EC
:103510009A46984600207B68BFF35F8F00221A60AE
:1035200086F310884346002B32D1002800D10CE1ED
:1035300000F0F4FB02000B1EA7DB00200021069028
:1035400007917868EFF3108672B601680029FCD005
:10355000BFF35F8F396888464C7B002CD7D09AD058
:10356000097B8C4297D8874965182D01B9688C462C
:10357000654428686968801A9941002991DD2A68A4
:103580006B68099800F032FC00239A469846C2E71F
:10359000089B1B022343994651461800C04705006B
:1035A0000E007A68EFF3108B72B6136859424B41E4
:1035B000D9B2002BF9D1BFF35F8F002E1EDB002E96
:1035C00046DD3B69002B47D04B456DD100F0A6FB93
:1035D00002000B1E6EDB52197341002B70DB002BB7
:1035E00072DB002104910131039102945146019153
:1035F000414600913800FFF77FFE4CE03B69002B0D
:10360000DDD04B4514D1069A079B521BB341002BCA
:1036100014DB002B16DB002104910131039102948D
:1036200051460191414600913800FFF765FE32E0B6
:10363000554B514AA1214E4801F044F80122524213
:10364000524BE6E7454B464A3F21464801F03AF8DF
:10365000002E01D1002DB4D13B68002C50D05A7BF4
:10366000944237D1012100294AD1DA7B002A4DD179
:103670009A7B002A03D1DA7B002A5AD19C73DC732F
:10368000002C5CD03B681B7B9C4258D8FA68013CFC
:10369000135D0133135500233B617A68BFF35F8FDD
:1036A00013608BF3108843E7374B334AA42130482B
:1036B00001F008F8294B2A4A3F212A4801F002F874
:1036C00001225242314B8AE7244B254A3F212548AB
:1036D00000F0F8FF002C0DD01A7B94420AD862004B
:1036E0001219033A1868844662449278002ABAD0C4
:1036F0000121B8E7264B274A6821274800F0E2FF5E
:10370000264B274AF621244800F0DCFF002A0AD085
:10371000197B8A4207D851008A18033A19688C46E7
:1037200062445470A4E71A4B1A4A68211A4800F000
:10373000C9FF1C4B1A4AFB21174800F0C3FF0A4B74
:103740000F4A41210A4800F0BDFF0BB0F0BCBB4658
:10375000B246A946A046F0BDDC24002048A90010CE
:10376000F0AC001064A90010A4AA001024AD001051
:1037700050AA0010A4AB001008AD0010BCAB0010A4
:1037800048AD0010FFFFFF0FC8AB0010FFFFFF7F29
:10379000C8AA001090AD0010E4AA001004AC0010FC
:1037A0005CAD001028AC001010B50C4B5B68002B12
:1037B00004D00A210A48FFF77FFC10BD074C230004
:1037C000084A1021206800F04FFC032000F09AFA0C
:1037D00003212000FFF7A8FCEBE7C046740E002091
:1037E000002700209931001010B5064B5B68002BB4
:1037F00001D0044810BD044B044A5E21044800F087
:1038000061FFC046740E00203CAC001030AD0010CB
:1038100050AA0010F0B5DE4657464E464546E0B584
:103820008BB0804616001F00149B9A46159B994644
:1038300016AB1B789B461F2302AA944663440022C2
:103840001A702BE0002809D042461268127B904281
:1038500004D8421E4146C9688A5C41E0404B414A57
:103860004121414800F02EFF07984CE0361BAF4144
:10387000002F07DB002F11DA3C4B3D4A3F213D482A
:1038800000F020FF012676423B4FF3E7374B384AE2
:103890003F21384800F016FF002F4FDB43465A689F
:1038A000EFF3108472B6136859424B41D9B20791B5
:1038B000002BF8D1BFF35F8F1F3302AA94466344F5
:1038C00004930023039302934B46019353460093C2
:1038D00032003B004046FFF70FFD031EB2D102004D
:1038E00041464968BFF35F8F00250D6084F310885F
:1038F000002B29D01F2302A98C4663441B78002B80
:10390000B2D112021043002B20D05B46002B1DD0F9
:103910004946D04704000D0003000B431DD0002989
:10392000A4DB00F0FBF906000F1EAFDB36196F4178
:10393000002FB1DA012676420F4FADE70B4B0C4A50
:103940003F210C4800F0BEFE012040420BB0F0BC0D
:10395000BB46B246A946A046F0BD0798F6E7C0466A
:10396000A4AA001048AD001050AA001048A90010E9
:10397000F0AC001064A90010FFFFFF7FF8B5040051
:10398000002900D162E04268EFF3108572B6136837
:1039900058424341D8B2002BF9D1BFF35F8FCBB26D
:1039A0002268567BB3421BD10120002848D02069F1
:1039B00088422BD0090AC9B2002B2ED02068007B88
:1039C00083422AD8581EE668305C88422BD00020FB
:1039D0006368BFF35F8F00221A6085F31088F8BD1B
:1039E000002B0DD0167BB3420AD85E00F618033EBA
:1039F0001768BC466644B678002ED6D00120D4E7BE
:103A0000134B144A6821144800F05CFE2C21134B20
:103A1000134AFF31134800F055FE134B134A41215E
:103A2000104800F04FFE1900100000F017FC0028AD
:103A3000CED199210E4B0A4A49000A4800F042FEB5
:103A400023698B42C4D100232361C1E70020C6E76C
:103A5000C8AA001090AD0010E4AA001060AC0010DD
:103A6000D8AC001050AA0010A4AA001048AD001055
:103A700084AC0010F0B587B006000F00EFF30583AB
:103A8000002B1FD106246442E517A4197D418D4205
:103A900002D803D1844201D900240025002D14DB73
:103AA0000494059500F03AF902000B1E13DBA41AEA
:103AB0009D41002D17DC14D03000390000F03AF998
:103AC00007B0F0BD234800F097FE234B234A3F2167
:103AD000234800F0F7FD204B204A3F21204800F00A
:103AE000F1FD002CE8D0FFF77FFE00230293019345
:103AF0001C4B0093049A059BFFF78CFE002818DAF4
:103B0000DAE7002300E00023002BD5D1164B1A681A
:103B1000EFF3108172B61368002BFCD0BFF35F8FF8
:103B2000114B1B68BFF35F8F00221A6081F310886E
:103B300020BF0499059A0D4B5B6A9A42E3D80B4863
:103B4000806A884203D29A42DBD00123DCE701235A
:103B5000DAE7C04688AC001048A90010F0AC0010AD
:103B600064A90010693100100027002000400540C2
:103B700070B504000D0000F0D1F802000B1E0ADB46
:103B8000200029008018594100290ADB00290CDB9C
:103B9000FFF770FF70BD084B084A3F21084800F04E
:103BA00091FD012040420749F0E7034B034A3F21C2
:103BB000034800F087FDC04648A90010F0AC001093
:103BC00064A90010FFFFFF7F70B584B005000C00F2
:103BD000EFF30583002B1ED1FFF706FE00230293AF
:103BE0000193224B00932A002300FFF713FE061EC9
:103BF00023DD20BFFFF7F8FD3100FFF7BFFE1C4BB0
:103C00005B6A9C422DD81A4A926AAA422CD29C42E4
:103C100025D0012026E0164B5B6A994209D8144A48
:103C2000926A824207D2994201D001201AE0002014
:103C300018E0002016E0012014E00D4B5B6A9C4266
:103C400009D80B4A926AAA4207D29C4201D00120AD
:103C500008E0002006E0002004E0012002E000204F
:103C600000E0002004B070BD0120FBE769310010C6
:103C70000040054070B5EFF305801038EFF3108C6D
:103C800072B61A4B1B68002BFBD0BFF35F8F01226B
:103C90001300834016494B6316490B601649097897
:103CA0000C00C440224214D0114A546A8200134DC1
:103CB0005259944206D38200114C125999430E4B2B
:103CC000197007E00A4A031D9B0099589950002279
:103CD00000E00022BFF35F8F044B002119608CF3DA
:103CE0001088002A00D0904770BDC046280100D03F
:103CF000004005403C7005403B270020182700206D
:103D0000C41E002010B50100024A0348FEF740FE21
:103D100010BDC046B4AD001038270020044B5B6ACC
:103D2000034A906A1900536A9942F9D17047C04614
:103D300000400540084B5B6A01E0074B5B6A8B4221
:103D4000FBD301E0044B5B6A8B4203D1024B9B6ABD
:103D50008342F7D37047C0460040054070B5040069
:103D60000D00EFF3108672B61B4B1B68002BFBD0C7
:103D7000BFF35F8F002D1CD02000FEF7F5FE174B20
:103D800083420BD019002000FEF7F6FE012120002F
:103D9000FEF7E2FE0123A340114A1360A400114B79
:103DA000E550BFF35F8F0C4B00221A6086F310883A
:103DB00070BDA2000B4B0021D1500122A2400A4944
:103DC0000B7893430B7005492000FFF719F8002189
:103DD0002000FEF7C1FEE4E7280100D0753C00108A
:103DE00038600540C41E00203B270020F0B5DE46A9
:103DF00000B584B00400150001921E000293FFF785
:103E00008DFF03958E4202D84ED185424CD9EFF3F7
:103E1000108B72B6274B1B68002BFBD0BFF35F8F54
:103E2000254A17780125A540EBB23B431370234B7D
:103E30005D63221D92000199D150A2002049029891
:103E400050501B6A2B4212D11C4B1B6C2B4208D0CA
:103E50000020BFF35F8F174B00221A608BF310888E
:103E600023E0184B184AC521184800F02BFCFFF737
:103E700055FF8E4214D802D1039B834210D80E4BBB
:103E80001B78BB420ED00D4B1D625D631F200440AA
:103E90000123A3400E4A1360074B1F701E38D8E75A
:103EA0000020D6E70120D4E7012004B080BCBB4647
:103EB000F0BDC046280100D03B270020004005404F
:103EC00018270020D8AD00105CAE0010FCAD00102B
:103ED00080E200E0EFF3108C72B60B4B1B68002BF6
:103EE000FBD0BFF35F8F01238340084A1362084968
:103EF0000A789A430A70BFF35F8F034B00221A605F
:103F00008CF310887047C046280100D0004005405F
:103F10003B27002010B500291ED0037B99421BD8F7
:103F20004B005B18033B0468A4466344002919D086
:103F3000002A1DD0914221D0002A25D0047BA24224
:103F400022D804685000801803382018817019782E
:103F500000291FD11A7010BD104B114A6821114859
:103F600000F0B0FB104B114A6F310E4800F0AAFB75
:103F70000F4B0E4A70210B4800F0A4FB0D4B0B4A6F
:103F80007121084800F09EFB044B054A6821054852
:103F900000F098FB41701A70DDE7C046C8AA001017
:103FA00080AF0010E4AA00104CAB00106CAF001002
:103FB00058AB001064AB001070B506000D00140083
:103FC000002914D0002A14D080687368984700280C
:103FD00006D0220029003000FFF79CFF280007E0F0
:103FE0002A0021003000FFF795FF200000E01000BC
:103FF00070BD0800FCE7000010B5002343730133D7
:104000008373037BC3730123027B9A4214D9002B71
:104010000CD0027B934209D85A00D218033A0168A7
:104020008C4662440133DBB25370EDE70B4B0C4A14
:1040300068210C4800F046FB002A09D0924207D8BC
:10404000016853009A18033A8A180023537010BD70
:10405000024B034A6821034800F034FBC8AA001051
:1040600080AF0010E4AA001010B5017342608360B5
:10407000FFF7C2FF10BD000070B50400081E00D19C
:1040800070BD002934D0237B994231D84B005B1896
:10409000033B2268944663445A78002AF0D02DD01E
:1040A000237B9A422AD853009B18033B21688C46F5
:1040B00063445D7800215970002825D0237B984205
:1040C00022D843001B18033B21688C46634400211F
:1040D000597001002000FFF76FFF06002900200043
:1040E000FFF7CAFF020031002000FFF765FFC7E7B6
:1040F000084B094A6821094800F0E4FA054B064AD2
:104100006821064800F0DEFA024B034A68210348A2
:1041100000F0D8FAC8AA001080AF0010E4AA00107E
:1041200070B505000C00160000292FD034D0037B99
:10413000994231D84B005B18033B026894466344B4
:104140005A78002A2ED19A78002A31D11978FFF7AF
:1041500093FF0300002E0AD0EA7B002A2ED1AA7B0F
:10416000002A03D1EA7B002A3BD1AC73EC73002B0D
:104170003DD1002C4FD02B7B9C424CD82B6861004A
:104180000C19033C1C190023637070BD254B264A93
:104190003821264800F096FA254B264A6821264801
:1041A00000F090FA254B204A3A21204800F08AFA84
:1041B000234B1D4A3B211D4800F084FA002A0AD0F7
:1041C000297B8A4207D851008A18033A29688C460D
:1041D00062445470C3E7164B164A6821164800F033
:1041E00071FA184B104A4221104800F06BFA002B6C
:1041F0000BD02A7B934208D843001B18033B2A6844
:104200009446634400229A70B3E7094B094A682137
:10421000094800F057FA064B064A6821064800F0A4
:1042200051FAC04678AE001058AF001080AE0010B2
:10423000C8AA001080AF0010E4AA0010D4AE00108D
:10424000FCAE001028AC001070B504000A00457BDD
:104250002900FFF765FF6073280070BD70B504008A
:10426000002967D0437B8B420ED0002911D0037BFD
:1042700099420ED84B005B18033B0268D018837834
:10428000002B0CD1002056E00121FFF7DDFF0120BB
:1042900051E0294B294A6821294800F013FA002BE4
:1042A00020D0227B93421DD85A00D318033B2268AA
:1042B000D2182568EB5C8B421AD0002B1BD0227BD6
:1042C000934218D85A00D318033B2268D218537867
:1042D0008B4216D0002BF0D11A4B1B4A6B211B4886
:1042E00000F0F0F9144B154A6821154800F0EAF97E
:1042F0004378137007E0104B104A6821104800F013
:10430000E1F9437853700023837043700122200049
:10431000FFF706FF0200617B814205D02000FFF716
:104320004BFE6073012006E0094B074A71210748E4
:1043300000F0C8F9002070BDC8AA001080AF0010BE
:10434000E4AA001038A8001040AF001080AE0010A2
:1043500020AF0010F8B5DE4657464E464546E0B55C
:1043600005000F0092460A9A934250D31A0E9146C6
:104370001E020A9A00233000494601F08FFB804656
:104380006C006419A400304B9C466444636883420B
:1043900000D260602B1FDBB29B46012B3DD9C023AE
:1043A0009B012343802212011A60AB00274A9958CF
:1043B000002907D0506901F033FB431C5800C01896
:1043C0000338FDD253465A0123685A40E0231A406D
:1043D00080235B0123431A605A46012A28D980238F
:1043E0009B012343802212011A60434663604246C8
:1043F00000233000494601F051FBAD00134B5851EA
:104400000120F0BCBB46B246A946A046F8BD104B01
:10441000104A3321104800F055F9012FBFD1C023B5
:104420009B01234303221A60A368DB07FCD5C9E77D
:104430002168794003220A401A60A2680123BB4028
:104440001342FAD0CBE7C046008000400020002095
:104450008CAF001000B00010A0AF001030B583B0DA
:104460000C2000F00BF9FEF773FA00280DD00023A2
:1044700004E099002D4A2E4888500133092BF8D9C1
:104480002A4B2C4A5A6203B030BD2B4B00229A674C
:1044900000F0FCF8294B01221A60274B5B6C012BC2
:1044A000FBD1274B03221A60234B9B6B012BFBD1C3
:1044B000013300930433234A0121234800F04EF8CE
:1044C00005230093214A0121214800F047F8214BA0
:1044D0000093002202210420FFF73CFF1E4D0095AF
:1044E0002B00002201210520FFF734FF104C00941F
:1044F0002300002200210720FFF72CFF0094230057
:10450000002200210820FFF725FF0A4B009323001B
:10451000002200210920FFF71DFF00952B0000223B
:1045200000210620FFF716FFADE7C046002000205F
:10453000006CDC021BB70000008000403CB0004073
:1045400030B00040002F685900800240008C864740
:1045500000C00240001BB70040597307F0B5C646C3
:1045600000B504000E0017001D00374801F058FA8E
:104570008046364BFA18364B9A4239D8010038003B
:1045800001F04EFA0200103A98235B009A4235D8A7
:104590006B1E062B38D8069B013B062B34D83F09EF
:1045A000474537D32D04069B1A0315432368002B78
:1045B00036DB284B9C4244D080225201264B1A60A5
:1045C000264B1A60264B9B6811009943FAD126604E
:1045D000A060231DC02292011A4321231360236887
:1045E000002BFCDAE5600823136080BCB846F0BD00
:1045F0001C4B1D4A11211D4800F064F81C4B1A4A3F
:1046000019211A4800F05EF81A4B174A1C21174866
:1046100000F058F8184B144A2321144800F052F8BF
:1046200022683F231340B342C3D1A3681B051B0D6F
:104630008342BED1E368EE22D2021340AB42B8D12E
:10464000D3E780229201B9E7001BB70080E84BD383
:1046500080F8A93200C0024000E0004000F00040B5
:1046600000C0004010B0001050B1001070B0001039
:10467000CCB00010E8B0001034B1001080239B00D3
:104680000343014AD362704700800540074BAA22CA
:1046900012011A602132FF32DA60054B054A1A60B6
:1046A000024B5B68002BFBDA7047C04600400240BB
:1046B0000060024000B0FA0000BEFDE710B5FFF751
:1046C000FBFF000010B582B00C001900002A0CD0CE
:1046D000084B002A0BD001920093230002000648E9
:1046E00002F012FB0120FFF7E7FF044BF1E7034A5A
:1046F000F1E7C0465CB100106CB1001028A00010BA
:1047000070B52B4B2B4A1A602B4B2C4A1A602C4B42
:104710009A682A4B9343FAD12A4C01E008CC984777
:10472000294B9C42FAD3FFF799FE234B274A1A6084
:10473000234B9B68DB43DB01FAD1254B40229A6770
:104740005A671A67DA66234C09E0234B234A87210C
:104750002348FFF7B7FF2000FEF7B6FC0834214BD3
:104760009C4209D22368002BF5D0012BEDD120000B
:10477000FEF7B7FC0834F2E71B4CA1681B4DC022C2
:10478000280002F071F9A560EFF30583002B00D03B
:1047900000BEFEF73FF9FEF781FCFFF705F8144C69
:1047A00001E008CC9847134B9C42FAD370BDC04639
:1047B00000E00040BFCDFBFE00F00040FE7F3C006B
:1047C00000C00040F80E0020080F0020FFFFFF018E
:1047D00000F00140E80E00209CB100102CB2001047
:1047E000BCB10010F80E002000ED00E00000002039
:1047F000080F0020100F00200FB400B583B0084848
:1048000002F052FA049B002B07D005A90191180071
:1048100002F05AFA034802F047FA0120FFF74CFF72
:104820001CB2001050A00010704710B5002802D034
:104830000B684968984710BD0100002007E083001D
:104840001B185B00501C08601078C01830380A68CC
:104850001378303BDBB2092BF1D97047F0B5DE4657
:1048600057464E464546E0B583B093461F000C9B25
:104870009A460D9C0E9B99460F9B9B0703D0B8460A
:104880000F00060022E00192A34688464E46B94634
:104890000700B44207D2551C4B4641462020B8477A
:1048A00001342A00F5E73D004F465C46019B9B46DC
:1048B000B1464646B84637002E0007E0013C551C7D
:1048C0005346185D43463900B0472A00002CF5D105
:1048D00035003E0047460F9B9B0707D4100003B0EE
:1048E000F0BCBB46B246A946A046F0BDB0464E4617
:1048F000B9462F005D46531BB342EFD2541C4B46C2
:1049000041462020B8472200F5E7F0B5CE4647469D
:1049100080B585B0944698460C9D0D9C0EAB1B78D7
:104920009946109A119B129EB7071CD4002B0CD0ED
:10493000F7070AD54F46002F02D10C37374204D073
:10494000013B02E030272F550134944201D21F2C45
:10495000F8D9F70707D59C4205D21F2C03D830277A
:104960002F550134F5E7F70615D5770505D4002C4A
:1049700003D0944224D09C4222D00F9A102A2BD0EC
:104980000F9A102A30D00F9A022A35D01F2C02D845
:1049900030222A5501341F2C05D84A46002A31D02E
:1049A0002D222A5501340396029301940095434623
:1049B0006246FFF753FF05B0C0BCB946B046F0BD34
:1049C000621E012C06D00F9F102F01D01400D4E7D7
:1049D000023CD2E71400D0E7B206D1D41F2CCFD8C6
:1049E00078222A550134D1E7B206CCD51F2CCAD87B
:1049F00058222A550134C9E71F2CC7D860322A55DE
:104A00000134C3E7720703D52B222A550134CAE7C4
:104A10003207C8D520222A550134C4E7F0B5DE4656
:104A200057464E464546E0B593B081468A460892C1
:104A300009931CAB10CB1B789B461E9D219B98466F
:104A4000002C03D1102342469A4390468023DB007A
:104A500046461E4042461A4212D0002C22D0002662
:104A60000EE03033D9B2771C0AAB995529002000EB
:104A700000F0D6FFAC4216D31F2F14D83E0004001E
:104A80002900200000F0CCFFCBB2092BE9D9424627
:104A9000920605D54121C918C9B20A39C9B2E2E75F
:104AA0006121F8E7270043460693209B05931F9B4F
:104AB000049303955B46029301970AAB0093099B0D
:104AC000089A51464846FFF720FF13B0F0BCBB469A
:104AD000B246A946A046F0BDF0B5DE4657464E4662
:104AE0004546E0B595B0089009910A920B931E9E39
:104AF0001F9C20AB1B789B46229B9946239D269B9F
:104B00009A463300234303D1103352469A439246C8
:104B10008023DB0057461F4052461A4219D033000B
:104B200023432DD0002714E03033DAB27B1C9846A3
:104B30000CABDA554A462B003000210000F0AEFFE6
:104B4000A5421FD819D043461F2B1BD84746060045
:104B50000C004A462B003000210000F09FFFD3B22A
:104B6000092BE1D95246920605D54122D218D2B27C
:104B70000A3AD2B2DAE76122F8E7B145E3D901E0B7
:104B80000023984653460693259B0593249B049344
:104B90004B4603935B460293434601930CAB009351
:104BA0000B9B0A9A09990898FFF7AFFE15B0F0BC65
:104BB000BB46B246A946A046F0BD0000F0B5DE46B1
:104BC00057464E464546E0B591B083468A460C921C
:104BD00098461A9C08941B9D099522002B002000E2
:104BE000290001F0E6F9002800D0E5E00122524258
:104BF000D74B2000290001F0D7F9002800D0DBE0D6
:104C000001225242D34B2000290001F0B7F90028BD
:104C100000D0D1E000220023089E3000099D290029
:104C200001F0ACF9002800D0DDE008980999069061
:104C300007918023DB001E9A1A400D921E9A1A4299
:104C400001D106231C930698079904000D000A0061
:104C50000600024300D1D1E0080D4005400DBE4CD6
:104C6000A44660440A03120BBC4B13431F0001F01F
:104C7000B3F9BB4ABB4B01F03EF9BB4ABB4B01F059
:104C800013F904000D000022B94B3000390001F087
:104C900002F9B84AB84B01F02EF902000B002000CF
:104CA000290001F001F901F0AFF9814601F094F912
:104CB00004000D00B14AB24B01F01DF90022B14BC6
:104CC00001F0F2F801F0A0F90600AF4AAF4B200066
:104CD000290001F010F904000D00300001F07CF90A
:104CE000AB4AAC4B01F007F902000B002000290091
:104CF00001F0D1F804000D0002000B0001F0FBF8F8
:104D00000A900B91A44BF31800261F0522002B00DC
:104D10002000290001F0C8F80E900F9122002B000E
:104D200000208021C90501F0B6F804000D00002222
:104D30009A4B0A980B9901F0C0F80022984B01F0A9
:104D4000B3F802000B000A980B9901F0B6F80022A4
:104D5000944B01F0A9F802000B000A980B9901F09E
:104D6000ACF802000B002000290001F09DF80200C1
:104D70000B000E980F9901F0A0F80022774B01F07C
:104D800093F832003B0001F0B6F806000F00040073
:104D90000D00069A079B01F007F9002830D0012387
:104DA0005B429C46E14400227D4B3000390001F01B
:104DB00084F804000D0023E01E9B04931D9B0393C5
:104DC0001C9B0293089A099B0092019343460C9AFC
:104DD0005146584600F0FCF811B0F0BCBB46B24654
:104DE000A946A046F0BD002300240693079406962A
:104DF00080231B069C46654407951AE700239946C5
:104E00004B466333C62B1ED804261E9B1B0526D596
:104E10002B0023430FD0644A644B0698079901F096
:104E2000BBF8002879D00022614B0698079901F061
:104E3000A5F8002871D01C9B4B4506DD4A46981A00
:104E4000431E1C9303E00526DFE700231C93802309
:104E5000DB001E9A1A431E920026002399461D9BD2
:104E60009E4264D29F1B02231E9A1A400A921E9AE7
:104E7000134202D0002E00D000274B46002B07D053
:104E800022002B000698079901F017F80690079169
:104E9000002200230898099901F070F8002848D1F1
:104EA000444B1E9A1340049303971C9B0293069B4A
:104EB000079C0093019443460C9A5146584600F0D3
:104EC00087F8002E00D187E71E9B9B063DD5452520
:104ED000441C4346020051462800D8474B46DA1787
:104EE0009B18534005220592013E0496002203922E
:104EF0000A3202924A46D00F0190009343462200A4
:104F000051465846FFF78AFD0A9B002B00D163E704
:104F100002005F460C9E1D9D54E01C9B002B9ED002
:104F20000D9B002B9BD01C9B013B1C9397E70027FC
:104F300099E7069C079D22002900802000068446F0
:104F400061440B0006920793AAE76525C0E7C046B7
:104F5000FFFFEF7FFFFFEFFF01FCFFFF0000F03FCF
:104F6000FB799F501344D33FB3C8608B288AC63F58
:104F70000000F83F61436F63A787D23F71A37909AF
:104F80004F930A400000E03F1655B5BBB16B02409D
:104F9000EF39FAFE422EE63FFF03000000002C40EE
:104FA00000002440000018402D431CEBE2361A3F5D
:104FB00080842E41FFF7FFFF541C434651462020BA
:104FC000B8472200931BAB42F6D3100004E7C0465B
:104FD000F0B5DE4657464E464546E0B595B00690DC
:104FE000079193469946209F1E9A1F9B1000190017
:104FF00000F0DFFF002831D101225242BF4B1E9842
:105000001F9900F0BBFF002837D101225242BC4B50
:105010001E981F9900F0C8FF00283DD10022B94B0F
:105020001E981F9900F0C0FF002850D10022B64BF7
:105030001E981F9900F0A2FF002848D100220023EB
:105040001E981F9900F09AFF002850D1002398461F
:10505000229B5B0500D4B6E0002458E0229B03931A
:10506000219B029303230193A84B00934B465A467E
:1050700007990698FFF7F2FB0EE1229B0393219B11
:10508000029304230193A24B00934B465A4607997F
:105090000698FFF7E3FBFFE00423229A1A402299C7
:1050A0000B4210D09B4B002A0FD00422229903916F
:1050B00021990291019200934B465A46079906980E
:1050C000FFF7CCFBE8E0944BEDE70322EEE7229BF1
:1050D0000493219B039302971E9B1F9C00930194B2
:1050E0004B465A4607990698FFF768FDD4E01E9A8A
:1050F0001F9B0020002100F0CEFE1E901F91012377
:105100009846A5E70CAB30221A55013F01341F2CFD
:1051100001D8092FF6D81E981F9900F075FF0500D9
:1051200000F05AFF02000B001E981F9900F0B3FE1A
:10513000FA007A4B9B181A685B680A920B9300F08E
:10514000DAFE0890099100F083FF060000F040FFAE
:1051500002000B000898099900F09DFE0890099143
:1051600000226F4B00F020FF00282ED001363000C7
:1051700000F02EFF02000B000A980B9900F004FFCC
:10518000002801D001350026002F2CD1280000F086
:1051900023FF02000B001E981F9900F07CFE060002
:1051A0000F0000225E4B00F0E9FE002846D10022ED
:1051B0005B4B3000390000F0F7FE00283ED1EB07D2
:1051C0003CD501353AE0062746E70022544B0898C3
:1051D000099900F0D3FE0028D6D1002E01D0F307A4
:1051E000D2D50136D0E7AA461F2C11D8013F0A219B
:1051F000300000F015FC651C30310CAB19550A214C
:10520000300000F00DFC092E0ED906002C00EBE753
:1052100055461F2C0CD87B1E002F09D00CAA30211C
:1052200011551F000134F4E72B0055461C00F0E730
:105230001F2C03D80CAB2E221A5501341F2C10D86A
:105240000A21280000F0C4FB661C30310CAB195554
:105250000A21280000F0BCFB051E01D03400EDE758
:1052600034000323229A1340012B1CD01F2C06D894
:105270004346002B32D00CAB2D221A550134229B11
:105280000393219B029301940CAB00934B465A4627
:1052900007990698FFF7E2FA15B0F0BCBB46B24694
:1052A000A946A046F0BD219B002B13D04346002BFE
:1052B00002D10C3313420FD0219B013B21931900E3
:1052C00003E00CAB30221A5501348C42CED21F2C95
:1052D000F7D9CBE72199F8E72199F6E7229B5B07FD
:1052E00004D50CAB2B221A550134C8E7229B1B07AF
:1052F000C5D50CAB20221A550134C0E7FFFFEFFFE4
:10530000FFFFEF7F65CDCD4165CDCDC148B2001027
:105310004CB2001040B200103CB2001038B4001083
:105320000000E03FF0B5DE4657464E464546E0B544
:1053300093B082468B4690461193002900D1EBE250
:1053400000275546119B1878002800D1E7E2252850
:1053500009D07C1C43463A005946A847119B0133AB
:1053600011932700EEE7013311930024119A11786D
:105370000B00203BD8B2102803D88300D048C35874
:105380009F460B00303BDBB2092B2CD92A292FD0AA
:1053900000230A93119B1A782E2A39D000239A46AB
:1053A000119A1378683BD9B2122976D88B00C54977
:1053B000CB589F4601231C4301321192D6E70223AA
:1053C0001C4301321192D1E704231C430132119294
:1053D000CCE708231C4301321192C7E710231C437A
:1053E00001321192C2E711A8FFF726FA0A90D1E71D
:1053F0001C9B1A1D1C921868002804DB0A90119B44
:1054000001331193C6E702231C4343420A93F6E794
:105410008022D20014435A1C11925A781300303B58
:10542000DBB2092B04D92A2A07D000239A46B7E712
:1054300011A8FFF701FA8246B2E71C9B1A1D1C92C5
:105440001868002804DB8246119B01331193A7E7FB
:105450000020F8E780235B002343511C1191527810
:105460006C2A01D01C0018E0C0239B001C430131B2
:10547000119112E080232343511C11915278682A24
:1054800001D01C0009E0C0231C430131119104E04C
:1054900080235B001C4301321192119B187803009A
:1054A000253BDAB2532A00D92CE29300864AD3581E
:1054B0009F4680239B001C4301321192EDE780231D
:1054C0005B001C4301321192E7E7782809D0582885
:1054D00038D06F2838D0622838D010239C430A2651
:1054E00000E01026582833D0692803D0642801D062
:1054F0000C229443630501D50122944369282AD0E4
:10550000642828D0A30500D59FE0E30500D5B8E0C6
:10551000630600D4CAE01C9A111D1C911168FF2279
:105520000A4005940A9B0493534603930296002372
:105530000193009243463A0059462800FFF76EFA5D
:10554000070027E01026CDE70826CBE70226C9E7AB
:1055500020221443C8E7A30520D4E30550D46306F2
:1055600066D51C9A111D1C911168FF220A40D317A1
:10557000D118594005940A9B04935346039302960D
:10558000D20F0192009143463A0059462800FFF796
:1055900045FA0700119B01331193D3E61C9BDA1DDA
:1055A00007218A43110008311C91116853689C46F9
:1055B000DB170C930D930C9A0D9B100048400E9036
:1055C000624653400F930E980F990C9A0D9B801AC8
:1055D00099410E900F9108940A9B079353460693A6
:1055E0000496002305936346DA0F0292009001911E
:1055F00043463A0059462800FFF76EFA0700C9E70C
:105600001C9A111D1C911268D317D118594005948A
:105610000A9B0493534603930296D20F0192009182
:1056200043463A0059462800FFF7F8F90700B1E76A
:10563000230605D51C9A111D1C910023D25E96E706
:105640001C9A111D1C91126891E71C9BDA1D072101
:105650008A43110008311C9108940A9B0793534612
:1056600006930496002305930293136854680093ED
:10567000019443463A0059462800FFF72DFA0700E7
:1056800088E71C9A111D1C9105940A9B04935346AC
:1056900003930296002301931368009343463A0054
:1056A00059462800FFF7BAF9070073E723060DD51E
:1056B0001C9A111D1C9112681204120C31E7C0468D
:1056C00054B2001098B20010E4B200101C9A111DE0
:1056D0001C91126825E746281AD01C9B0733072225
:1056E00093431A0008321C9204940A9A0392524679
:1056F00002925C681B680093019443463A00594645
:105700002800FFF765FC0700119B0133119319E690
:1057100020231C43E1E7672801D0472802D18023DA
:105720001B011C43452801D0472801D120231C43DD
:105730001C9B0733072293431A0008321C920494DF
:105740000A9A0392524602925C681B680093019485
:1057500043463A0059462800FFF730FA0700119BEC
:1057600001331193EEE502231A00224092462342B0
:105770001FD001241C9B1A1D1C927A1C914618787C
:1057800043463A005946A8475346002B16D1119B71
:10579000013311934F46D5E5561C43465946202008
:1057A000B847230032005C1C9D42F5D83D0017002D
:1057B000E0E701233A002F000A9DF4E74A46A94694
:1057C0000A9D06E0571C434659462020C84734002E
:1057D0003A00661CA542F5D84D469146D7E71C9B7A
:1057E0001A1D1C921B6899465346002B00D1013BA1
:1057F0004E4601E0013613003278002A02D05A1ECC
:10580000002BF7D14B46F21A10928023DB002600C2
:105810001E401C4203D0524501D953461093022327
:105820001A0022400B92234205D03A0037004C4622
:10583000A946554620E03A00109B5F46B3462E002D
:1058400006E0551C434639002020B04723002A00BB
:105850005C1C0A999942F4D835005E46BB46109408
:1058600037004C46A946554606E01D000134561C3B
:1058700043465946C84732002078002804D0002FFC
:10588000F4D06B1E002DF0D117004D460B9B002B62
:1058900003D1119B0133119354E50A9F109B06E03D
:1058A000561C434659462020A847230032005C1C62
:1058B0009F42F5D81700ECE721231C431C9B1A1DBF
:1058C0001C921B680093059408230493534603938A
:1058D000102302930023019343463A0059462800BF
:1058E000FFF79CF80700119B013311932AE57C1CFC
:1058F00043463A0059462520A847119B013311938E
:1059000027001FE57C1C43463A005946A847119BD7
:1059100001331193270015E50A4B9A4610E5AA4674
:10592000474502D343465A1E00E03A0043465946D3
:105930000020D047380013B0F0BCBB46B246A946A1
:10594000A046F0BD2948001000B585B00290039133
:105950000121009313004A4202A90248FFF7E2FC2A
:1059600005B000BD2B48001001480421014B184729
:10597000A00E00209959001010B5010018231B88B3
:1059800014221088984710BD10B5010018231B88F9
:1059900016221088984710BDF0B5C64600B507001E
:1059A0000E0000250123984600E00135B5420AD2D9
:1059B000AC003C192068FFF7DFFF20600028F4D11D
:1059C00000239846F1E7404680BCB846F0BD000091
:1059D000124A936F9B0815D29066D166002905D0B4
:1059E000FFE7FFE7FFE7516F106F704704B58021B5
:1059F0000906C2175140002800D0C84304F040F8FF
:105A0000002104BDF0B5146E556E576F166FFFF789
:105A1000E3FF1466556657671667F0BD000000D0B7
:105A2000114A936F9B0813D210665166002905D066
:105A3000FFE7FFE7FFE7516F106F704704B50028DD
:105A400001D00020C04304F01BF8002104BDC04673
:105A5000F0B5146E556E576F166FFFF7E5FF1466BD
:105A6000556657671667F0BD000000D094464A4A55
:105A7000926F9208624601D228E0C046F0B5464EC9
:105A8000346E756E776F366F00F020F89446424A98
:105A900014665566576716676246F0BD94463E4ADF
:105AA000926F9208624601D254E0C046F0B53A4E79
:105AB000346E756E776F366F00F04CF89446364A48
:105AC00014665566576716676246F0BD002B24DBE7
:105AD00011D000293EDA00B5C943404200D101315E
